:02000000552C7D
:10000800FF00030E8301B8000A08B7008A017008D0
:10001800A3007C08A2007D08A1000130B400851669
:100028003308003A031D22280230FC002930FD0065
:10003800FD0B1C28FC0B1C28000000003308013AAB
:10004800031D30280230FC008330FD00FD0B2A28F8
:10005800FC0B2A28000000003308023A031D3E2842
:100068000230FC00DD30FD00FD0B3828FC0B382881
:10007800000000003308033A031D4A280330FC003F
:100088003730FD00FD0B4628FC0B46283308043AA0
:10009800031D56280330FC009130FD00FD0B52284B
:1000A800FC0B52280130AE00AF0180302D06F00065
:1000B80080302F067002031D63282E082C02031CB3
:1000C80071282F082D06031D6B282C082E060319EE
:1000D8007128AE0A0319AF0A59288512B401B23043
:1000E8008100A0308B002308F0002208FC002108C2
:1000F800FD0037088A00380E8300FF0E7F0E0900C6
:0E010800F201F101F001F801F30100300800EE
:08011600FA1FF213003008008B
:10011E007B15FB1F99280130F300F201F101F0016C
:08012E00FA0DF20CFF3008008D
:100136007B14FB1FA628F201FA1FFF30F200F10024
:0A014600F000FA0DF20CFF30080083
:10015000FB14FB1FB228FF30F300F200F100F000A7
:08016000FA0DF20CFF3008005B
:0C01680007308312FD00FD0BB7280800D3
:10017400A0017208031DCF287108F2007008F10075
:10018400F001A0157208031DCF287108F200F101D7
:10019400A011201672080319DD282008F302031D9C
:1001A400031CE1280310F21BE528F00DF10DF20DFC
:1001B400F30BD528E1280130FC008420E828023024
:0E01C400FC008F20E8280430FC008B2008008F
:1001D2008312F301F4013D08F1000130F0007108CF
:1001E2000319F728F00D7010FF3EF1283C08840037
:1001F20070080005F200F1017208003A03190329A0
:100202000130F1007108003A0319EC280230B40001
:100212003D08F1000130F000710803191429F00DB6
:100222007010FF3E0E293C08840070080005F200A1
:10023200F1017208003A031920290130F100710816
:10024200013A031D2829F30A0319F40A092934087B
:10025200023A03192D294829B40100307402031D02
:1002620034291D30730203183E2903303602031865
:100272003C29B60A3E29B601A51200307402031DBC
:1002820044291D307302031C4829A516B601080033
:10029200C33083129F052408F000F00D7010F00D9A
:1002A200701070089F04B4209F149F1C5A290000EC
:1002B20056291E08F100F00183161E0870048312ED
:1002C200BC007108BD000030BD043C08F0003D08D0
:0402D200F10008002F
:0602D600FB15FF300800DB
:1002DC00831203137008F8007108F000F101F201A9
:1002EC00F301FB01FC019630F300FA017008F100F8
:0C02FC007808F000F801F201BA200800B8
:1003080083120313FB01FC01FA0173080319C329C3
:10031800F2178E30F302F31B942903199429C62986
:10032800F309F30A08307302031CA929F300F10D3D
:100338007208F100F20108307302031CA929F10DBB
:10034800F1017308031D0310B12973080319B129BA
:100358000310F20CF10CF30BAC297B1B711CBB29AD
:10036800031CBB29F10A0319F20AF21BD229FA1F4E
:10037800D529F209F109F10A0319F20AD529F2017E
:10038800F101D5297B14FB1FD829F201FA1FD829BE
:10039800FF30F200F100FA0DF20CD8290130FC0010
:1003A800DA290030FC00DA29FF30FC00FC080319C8
:0E03B800DE299B207108F0007208F100080099
:1003C60083120313FB017308031D770803193A2AE6
:1003D60072087606FA007708F3077E30031CF729C1
:1003E600F30203183D2AFA29F302031C402A720875
:1003F600F8007108FC007008FD00F817F6170310E6
:10040600F201F101F0011830A0007D1C142A7408D5
:10041600F00775080318750FF10776080318760FAD
:10042600F207F20CF10CF00CF80CFC0CFD0C0310AE
:10043600A00B082AF21B242AF80DF00DF10DF20D7F
:10044600F3037B1B701C362AF81F362AF00A0319A1
:10045600F10A0319F20A031D362AF20CF10CF00C0C
:10046600F30A03193D2AFA1FF2130030422A01301B
:100476008420422A0230A820422A04308F2000001D
:0204860008006C
:1004880002308312A40049217008A7007108A8004F
:100498006E210030F4000030F5000030F6007E30A8
:1004A800F700E32184217008A7007108A8000F3025
:1004B8007002F2000030031C013E7102F300720862
:1004C800A7007308A800FD307302031D6D2AE830E9
:1004D80072020318702AA51501302802031D762A16
:1004E800543027020318802AA60A2608043C031859
:1004F8007F2A2514A601852AA601251D852A2510EF
:10050800251101302802031D8B2ABD30270203184C
:100518008E2AA51401302802031D942AAE30270222
:100528000318972A25160530BC000330BD00E920C2
:10053800A51AA02A0510A12A05143B08F000F00C02
:10054800F01301307005F1007108013A031DAE2A5D
:100558008514AF2A85103B08F000F00CF013F00C5E
:10056800F013F00CF013F00CF01301307005F100EB
:100578007108013A031DC22A0516C32A0512623002
:10058800FC006530FD00FD0BC72AFC0BC72A0000E4
:040598000000080057
:10059C0049308312B0000130B1002430B200003079
:1005AC00C3309F05F0309F05F03083169F048312F3
:0605BC009F171F14080048
:1005C20083120313FB01730803191E2B7208FA002E
:1005D200F2178E30F302F31F212BF309F30A0830CE
:1005E2007302031C042BF300F10D7208F100F201F7
:1005F20008307302031C042BF300F10DF1017308A0
:10060200031D03100C2B730803190C2B0310F20C9F
:10061200F10CF30B072B7B1B711C162B031C162BE7
:10062200F10A0319F20AF21B2D2BFA1F302BF209E1
:10063200F109F10A0319F20A302BF201F101302B10
:100642007B14FB1F332BF201FA1F332BFF30F20016
:10065200F100FA0DF20C332B0130FC00352B003087
:10066200FC00352BFF30FC00FC080319392B9B20C2
:0A0672007108F0007208F1000800A2
:10067C0083127408003A031D582B7508003A031DA9
:10068C00582B7608003A031D582B7708003A031DA7
:10069C00582BFF30F000FF30F1007F30F200FF30BC
:1006AC00F300F32B8312031377080319E72B73085A
:1006BC000319EA2B720876068039FA00F217F6173E
:1006CC00A0017208F8007108FC007008FD007408A5
:1006DC00FD027508031C750FFC027608031C760FCF
:1006EC00F802F801FC01FD01031C832B0310F20C32
:1006FC00F10CF00CF80C0130A0007708F302031C8D
:10070C008D2B7E302007F3070318ED2B922B7E30B8
:10071C002007F307031CF02B1830FA07FD0DFC0D16
:10072C00F80DF00DF10DF20DA00D7408F002750826
:10073C00031C750FF1027608031C760FF202760D7E
:10074C00A004201CAB2B7D14B62B7408F007750885
:10075C000318750FF10776080318760AF2077D1057
:10076C00FA031F307A05031D942B7B1B7D1CDD2B9C
:10077C000310F00DF10DF20DA00D7408F0027508C8
:10078C00031C750FF1027608031C760FF202760D2E
:10079C0020040139FD070318FC0A0319F80A031D8C
:1007AC00DD2BF80CFC0CFD0CF30A0319ED2BFA1FD6
:1007BC00F8137808F2007C08F1007D08F000003096
:1007CC00F22B01306B21F22B02308420F22B0430FF
:0C07DC00A820F22B08308F20000008003D
:1007E80083120313F801F9011030FC00710DF80DA4
:1007F800F90D7408F8027508031C750FF90203183F
:100808000C2C7408F80775080318750FF9070310FE
:0A081800F00DF10DFC0BFA2B0800A7
:1008220083127408003A031D192CFF30F000292CA2
:1008320083120313F8010830FC00700DF80D7408E0
:10084200F8020318262CF8070310F00DFC0B1E2CDF
:0208520008009C
:1008540083120313FB01FA01F9018030F800F10C53
:10086400F00C031C3E2C7408F90775080318750F67
:10087400FA070318FB0A0310F01F462C7408FA0742
:1008840075080318750FFB07FB0CFA0CF90CF80C30
:10089400031C312C7B08F3007A08F2007908F1007C
:0608A4007808F0000800D6
:1008AA0087308316810050308312B5003508643CC6
:1008BA000318612C6430B5001930F4003508F000D3
:1008CA0011247008B3003508F000F1016430F40017
:1008DA00F5012A241930F400F501F4237008B9004F
:1008EA007108BA003308F000F1016430F400F50130
:1008FA002A2470083902F0007108031C013E3A02EA
:10090A00F1006E210030F4000030F5001830F600D6
:10091A008230F7003E23E1227008AC007108AD0076
:10092A00543083169F0004308500073083129900E3
:10093A00B2308100A0308B00A51025122511CE22DD
:10094A000630FB001330FC00AD30FD00FD0BAB2C74
:10095A00FC0BAB2CFB0BAB2C00000000A511A5195E
:10096A00B92CBB014422B42C1330BB0044221030F2
:10097A00FB003930FC000D30FD00FD0BC22CFC0BD6
:10098A00C22CFB0BC22C00000000BB014422013028
:10099A00AB006230FC006530FD00FD0BD22CFC0B75
:1009AA00D22C000000001330BB0044226230FC004D
:1009BA006530FD00FD0BDF2CFC0BDF2C0000000076
:1009CA00BB0144222B08023A0319ED2CAB0ACE2CA8
:1009DA000330FB008A30FC005530FD00FD0BF32C80
:1009EA00FC0BF32CFB0BF32C00000000251E172D2B
:1009FA001330BB0044220D30FC00FB30FD00FD0B20
:100A0A00042DFC0B042D00000000BB0144220D3014
:100A1A00FC00FB30FD00FD0B102DFC0B102D00001F
:100A2A000000FD2CA51C422D0130AB001330BB0089
:100A3A0044220330FB008A30FC005530FD00FD0BD8
:100A4A00242DFC0B242DFB0B242D00000000BB01E0
:100A5A0044220330FB008A30FC005530FD00FD0BB8
:100A6A00342DFC0B342DFB0B342D000000002B0819
:100A7A001E3A0319422DAB0A1B2D2510A601A512F9
:100A8A00251C5D2D1230BB0044223330FB00BB30E5
:100A9A00FC00DF30FD00FD0B502DFC0B502DFB0B35
:100AAA00502D000000001230BB0044222515AB2D4A
:100ABA00AB010230BB004422BB0144220230BB001E
:100ACA0044221030BB0044220230BB0044221030C2
:100ADA00BB004422BB0144221030BB0044222B0835
:100AEA00023A03197A2DAB0A5E2D3308013C03182A
:100AFA00952D0230BB0044220230BB004422023052
:100B0A00BB0044221230BB004422BB0144221030F5
:100B1A00BB004422BB0144221030BB004422AB2D4F
:100B2A000230BB004422BB0144220230BB004422F3
:100B3A001030BB0044220230BB0044221030BB00FC
:100B4A004422BB0144221030BB004422452DAC2D67
:02400E00D40FCD
:00000001FF
